:101E000011248FE594E09EBF8DBF84B7882349F0ED
:101E1000982F9A70923029F081FF02C097EF94BFFB
:101E2000C6D085E08EBD82E08BB988E18AB986E8AC
:101E300080BD80E189B98EE0A7D0BD9A86E020E31D
:101E40003CEF44E050E23DBD2CBD48BF08B602FE69
:101E5000FDCF98B3952798BBA8955F9902C0815094
:101E600091F723E0E22EDD24D39435E0C32E41E147
:101E7000B42E83D0813479F480D0182F89D01238D1
:101E800029F480E076D080E174D0F3CF83E011387C
:101E9000C9F787E0F7CF823419F484E181D0F3CF1A
:101EA000853411F485E0FACF853541F466D0C82F2A
:101EB00064D0D82FCC0FDD1F6BD0E5CF863519F459
:101EC00084E06ED0DECF843609F035C056D055D0D0
:101ED000F82E53D0A82E00E610E080E6982E9F0C36
:101EE0004CD0F80181938F019E12FACF51D0F5E4C6
:101EF000AF1201C0FFCFFE01E7BEE89507B600FCB8
:101F0000FDCF90E080E0FE01E80FF91FDC01A05A50
:101F1000BF4F2D913C910901D7BEE895112402963F
:101F2000F812F1CFFE01C7BEE89507B600FCFDCF61
:101F3000B7BEE895A8CF843771F41FD01ED0F82E15
:101F40001CD026D08E01F80185918F0112D0FA9411
:101F5000F110F9CF98CF853731F41AD08EE109D03E
:101F600083E907D096CF813509F0A6CF88E00CD061
:101F7000A3CF5D9BFECF8CB908955F9BFECF5C998C
:101F800001C0A8958CB1089598E191BD81BD0895D7
:101F9000F4DF803219F088E0F7DFFFCF84E1E9CF8A
:101FA000CF93C82FEADFC150E9F7CF91F1CF282EA8
:0A1FB00080E0EADFE0E0FF2709947B
:021FFE000007DA
:0400000300001E00DB
:00000001FF
