:107C0000112484B7882349F0982F9A70923029F074
:107C100081FF02C097EF94BFE8D085E08093810098
:107C200082E08093C00088E18093C10086E0809369
:107C3000C20080E18093C4008EE0C2D0259A86E025
:107C400020E33CEF91E0309385002093840096BBC5
:107C5000B09BFECF1D9AA8954091C00047FD02C081
:107C6000815089F793E0E92EBB24B39425E0A22E3E
:107C700031E1932E99D0813479F496D0182FA6D083
:107C8000123811F480E004C087E0113809F083E075
:107C900084D080E182D0EECF823419F484E19ED08A
:107CA000F8CF853411F485E0FACF853541F47CD0E6
:107CB000C82F7AD0D82FCC0FDD1F88D0EACF8635D9
:107CC00019F484E08BD0DECF843609F03BC06CD051
:107CD0006BD0F82E69D0882E00E011E065D0F80155
:107CE00081938F01FE12FACF71D06E01F5E48F12ED
:107CF0000EC000E011E008C0F80161918F01C601DB
:107D000082D0FFEFCF1ADF0AF012F6CFC2CFFE010A
:107D1000E7BEE89507B600FCFDCFFE01A0E0B1E0AC
:107D20008D919D910C01B7BEE89511243296FA12FF
:107D3000F7CFFE01A7BEE89507B600FCFDCF97BEC2
:107D4000E895A7CF8437D1F42FD02ED0182F2CD080
:107D5000082F3CD06E01053451F41C0FC6014BD0E6
:107D60001CD08FEFC81AD80A1C11F8CF92CFF60199
:107D700085916F0112D01150D1F78BCF853739F42F
:107D800025D08EE10AD085E908D08FE081CF8135FA
:107D900009F093CF88E014D090CF9091C00095FF68
:107DA000FCCF8093C60008958091C00087FFFCCF70
:107DB0008091C00084FD01C0A8958091C6000895FF
:107DC000E0E6F0E098E1908380830895EDDF803273
:107DD00019F088E0F5DFFFCF84E1DFCFCF93C82F24
:107DE000E3DFC150E9F7CF91F1CF282E80E0E8DF43
:107DF000E0E0FF270994F999FECF92BD81BDF89A82
:107E0000992780B50895262FF999FECF1FBA92BD04
:107E100081BD20BD0FB6F894FA9AF99A0FBE01966B
:027E20000895C3
:027FFE0000077A
:0400000300007C007D
:00000001FF
