:101D0000112484B7882349F0982F9A70923029F0D3
:101D100081FF02C097EF94BFFFD08EE0EAD0D29A45
:101D200023E0B22EAA24A39435E0932E40E8C42EDB
:101D30004EE0D42E8D2D806C882EC7D0813479F45E
:101D4000C4D0182FDAD0123811F480E004C087E034
:101D5000113809F083E0AAD080E1A8D0EECF823418
:101D600019F484E1D2D0F8CF853411F485E0FACFAC
:101D7000853541F4AAD0C82FA8D0D82FCC0FDD1FAD
:101D8000BCD0EACF863519F484E0BFD0DECF8436EC
:101D900009F054C09AD099D0782E97D0682E00E6DA
:101DA00010E080E6582E570C90D0F80181938F01F7
:101DB0005E12FACFA2D02097F9F490916000909330
:101DC000E400809161008093E500209168002093F9
:101DD000E600209169002093E700E92EF82EC70164
:101DE000049780936800892F8F70806C80936900BE
:101DF000C092600080926100F5E46F1201C0FFCFD5
:101E0000FE01B7BEE89507B600FCFDCF90E080E08C
:101E1000FE01E80FF91FDC01A05ABF4F2D913C9144
:101E20000901A7BEE895112402967812F1CFFE01B0
:101E300097BEE89507B600FCFDCF8ECF843739F505
:101E400044D043D0782E41D058D08E017C0E01155D
:101E5000110541F48091E40029D00F5F1F4F7012EB
:101E6000F6CF7ACF0130110519F48091E500F4CF57
:101E70000830110519F48091E600EECF0930110504
:101E800019F48091E700E8CFF8018491E5CF853718
:101E900039F433D08EE10AD083E908D08CE05BCFEF
:101EA000813509F06DCF88E024D06ACF2AE030E098
:101EB0008095089410F4DA9802C0DA9A000015D0E0
:101EC00014D086952A95B1F70895A89529E030E0B9
:101ED000CB99FECF0AD009D008D08894CB9908942A
:101EE0002A9511F08795F7CF08959EE09A95F1F71E
:101EF000089598E191BD81BD0895E7DF803219F022
:101F000088E0F7DFFFCF84E1D1CFCF93C82FDDDFAB
:101F1000C150E9F7CF91F1CF282E80E0EADFE4E06D
:041F2000FF270994FA
:021FFE000007DA
:0400000300001D00DC
:00000001FF
