:020000021000EC
:10FC0000112484B7882349F0982F9A70923029F0F4
:10FC100081FF02C097EF94BF11D185E080938100EE
:10FC200082E08093C00088E18093C10086E08093E9
:10FC3000C20080E18093C4008EE0EBD0279A86E07A
:10FC400020E33CEF91E0309385002093840096BB45
:10FC5000B09BFECF1F9AA8954091C00047FD02C0FF
:10FC6000815089F7DD24D39445E0C42E51E1952ECF
:10FC7000C4D0813479F4C1D0C82FD1D0C23811F4A6
:10FC800080E004C087E0C13809F083E0AFD080E1B4
:10FC9000ADD0EECF823419F484E1C9D0F8CF8534E9
:10FCA00011F485E0FACF853581F4A7D0082FA5D0CF
:10FCB000182F87FF07C08BB781608BBF000F111F04
:10FCC000AED0E5CF8BB78E7FF8CF863579F495D05F
:10FCD0008D3451F492D0CBB790D0C170880F8C2B5B
:10FCE0008BBF81E0A4D0CCCF83E0FCCF843609F079
:10FCF0004CC083D0C82FD0E0DC2FCC277ED0C82BBF
:10FD00007CD0882E5E018EEFB81AE12C22E0F22E14
:10FD100074D0F70181937F01EA15FB05C9F77FD005
:10FD2000F5E48F1211C0F12CE12C08C06081C801EC
:10FD30008E0D9F1D91D08FEFE81AF80AF701FE5F34
:10FD4000CE15DF0599F7A3CF83E0F80187BFE895CB
:10FD500007B600FCFDCF90E080E0F801E80FF91F46
:10FD6000DC01BE5F2D913C910901D7BEE8951124BD
:10FD70000296C817D90789F7F801C7BEE89507B6F4
:10FD800000FCFDCF97BEE89582CF843709F535D0CA
:10FD9000C82FD0E0DC2FCC2730D0C82B2ED0B82EE7
:10FDA0003ED07801F5E4BF120CC0C00FD11FC701CF
:10FDB0004BD01CD08FEFE81AF80AEC16FD06B9F705
:10FDC00066CFF70187917F0111D02197D1F75FCFDF
:10FDD000853731F424D08EE109D087E907D055CF9B
:10FDE000813509F06DCF88E014D06ACF9091C000C2
:10FDF00095FFFCCF8093C60008958091C00087FFD7
:10FE0000FCCF8091C00084FD01C0A8958091C60000
:10FE10000895E0E6F0E098E1908380830895EDDFB7
:10FE2000803219F088E0F5DFFFCF84E1DFCFCF9398
:10FE3000C82FE3DFC150E9F7CF91F1CF282E80E042
:10FE4000E8DFE0E0FF270994F999FECF92BD81BD7C
:10FE5000F89A992780B50895262FF999FECF1FBAF1
:10FE600092BD81BD20BD0FB6F894FA9AF99A0FBEE3
:04FE7000019608955A
:02FFFE000007FA
:040000031000FC00ED
:00000001FF
