:107E00001F92CDB7DEB711248FE598E09EBF8DBFDE
:107E100084B714BE982F9D7009F0CBD085E08EBD3D
:107E200082E08BB988E18AB986E880BD8BE089B9A8
:107E30008EE0ACD0B89A86E04DE55DEF34E021E00D
:107E40005DBD4CBD38BF08B602FEFDCF98B392278A
:107E500098BBA8958150A1F7812C912C13E001E0EB
:107E600025E0F22E31E1E32E8AD0813471F487D0FF
:107E7000898390D08981823809F473C0813811F4E4
:107E800086E001C083E077D073C0823411F484E1CE
:107E900003C0853419F485E085D06AC0853549F47E
:107EA0006ED0D82E6CD08D2C912C982A880C991CD1
:107EB0005EC0863521F484E075D080E0E4CF84365E
:107EC00009F038C05CD05BD0D82E59D0C82E80E6DF
:107ED000A82EB12C80E6D80E52D0F50181935F0117
:107EE000DE12FACF57D0F5E4CF1201C0FFCFF40174
:107EF00017BFE89507B600FCFDCFA401A0E6B0E0EF
:107F00002C911296CD010197FC01808130E0382B35
:107F1000FA01090107BFE89511244E5F5F4FDA129D
:107F2000EFCFF401F7BEE89507B600FCFDCFE7BE42
:107F3000E8951EC0843771F422D021D0D82E1FD0EE
:107F400029D05401F50185915F0115D0DA94D11043
:107F5000F9CF0EC0853739F41DD08EE10CD085E9FC
:107F60000AD082E090CF813511F488E00FD012D092
:107F700080E101D079CF5D9BFECF8CB908955F9BE6
:107F8000FECF5C9901C0A8958CB1089598E191BD90
:107F900081BD0895F4DF803219F088E0F7DFFFCF6C
:107FA00084E1E9CFCF93C82FEADFC150E9F7CF9141
:0E7FB000F1CF282E80E0EADFE0E0FF27099401
:027FFE00020679
:0400000300007E007B
:00000001FF
