:107E0000112484B7882349F0982F9A70923029F072
:107E100081FF02C097EF94BFCED085E080938100B0
:107E200082E08093C00088E18093C10086E0809367
:107E3000C20082E28093C4008EE0A8D0259A86E03A
:107E400020E33CEF91E0309385002093840096BBC3
:107E5000B09BFECF1D9AA8954091C00047FD02C07F
:107E6000815089F793E0F92EEE24E39425E0D22E99
:107E700031E1C32E7FD0813479F47CD0182F8CD09F
:107E8000123811F480E004C087E0113809F083E073
:107E90006AD080E168D0EECF823419F484E184D0D6
:107EA000F8CF853411F485E0FACF853541F462D0FE
:107EB000C82F60D0D82FCC0FDD1F6ED0EACF86350B
:107EC00019F484E071D0DECF843609F02DC052D091
:107ED00051D0B82E4FD0A82E00E011E04BD0F801C1
:107EE00081938F01BE12FACF57D0F5E4AF1201C0D3
:107EF000FFCFFE01F7BEE89507B600FCFDCFFE01FF
:107F0000A0E0B1E08D919D910C01E7BEE8951124B0
:107F10003296BA12F7CFFE01D7BEE89507B600FC3D
:107F2000FDCFC7BEE895B5CF843771F423D022D0FA
:107F3000B82E20D031D08E01F80185918F0113D059
:107F4000BA94B110F9CFA5CF853739F425D08EE199
:107F50000AD085E908D08FE09BCF813509F0ADCFFD
:107F600088E014D0AACF9091C00095FFFCCF8093F9
:107F7000C60008958091C00087FFFCCF8091C000AB
:107F800084FD01C0A8958091C6000895E0E6F0E068
:107F900098E1908380830895EDDF803219F088E0C6
:107FA000F5DFFFCF84E1DFCFCF93C82FE3DFC150F0
:107FB000E9F7CF91F1CF282E80E0E8DFE0E0FF275E
:027FC000099422
:027FFE0000077A
:0400000300007E007B
:00000001FF
