:107C00001F92CDB7DEB7112484B714BE982F9D7094
:107C100009F0F4D085E08093810082E08093C00079
:107C200088E18093C10086E08093C20080E1809368
:107C3000C4008EE0CED0259A86E020E33CEF91E0B0
:107C4000309385002093840096BBB09BFECF1D9A95
:107C5000A8958150A9F7612C712C03E0FF24F394BF
:107C600035E0E32E41E1D42EA8D0813479F4A5D0BB
:107C70008983B5D08981823811F482E005C08138CA
:107C800011F486E001C083E091D08DC0823411F4FC
:107C900084E103C0853419F485E0A9D084C085351A
:107CA00049F48BD0182F89D0612E712C782A660C5C
:107CB000771C78C0863521F484E099D080E0E4CF49
:107CC000843609F045C079D078D0182F76D0982E18
:107CD000A12CBB24B39471D0F50181935F011E13D5
:107CE000FACF7DD0F5E49F1210C04301A12CBB2434
:107CF000B3941A1509F457C0F50161915F01C401ED
:107D00008BD0FFEF8F1A9F0AF4CFF30107BFE895DE
:107D100007B600FCFDCFA301A0E0B1E02C911296C4
:107D2000CD010197FC01808130E0382BFA01090177
:107D3000F7BEE89511244E5F5F4F1A13EFCFF301A2
:107D4000E7BEE89507B600FCFDCFD7BEE8952BC08F
:107D50008437D9F432D031D0182F2FD089833FD037
:107D600089815301853451F4160DC5014DD01ED0C3
:107D7000FFEFAF1ABF0A1A11F8CF15C0F5018591B0
:107D80005F0114D01150D1F70EC0853739F427D0D8
:107D90008EE10CD085E90AD08FE076CF813511F4E1
:107DA00088E017D01CD080E101D05ECF9091C00058
:107DB00095FFFCCF8093C60008958091C00087FF97
:107DC000FCCF8091C00084FD01C0A8958091C600C1
:107DD0000895E0E6F0E098E1908380830895EDDF78
:107DE000803219F088E0F5DFFFCF84E1DFCFCF9359
:107DF000C82FE3DFC150E9F7CF91F1CF282E80E003
:107E0000E8DFE0E0FF270994F999FECF92BD81BD3C
:107E1000F89A992780B50895262FF999FECF1FBAB1
:107E200092BD81BD20BD0FB6F894FA9AF99A0FBEA3
:047E3000019608951A
:027FFE00020679
:0400000300007C007D
:00000001FF
