:107E000011248FE598E09EBF8DBF84B7882349F089
:107E1000982F9A70923029F081FF02C097EF94BF9B
:107E2000C7D085E08EBD82E08BB988E18AB986E84B
:107E300080BD8BE089B98EE0A8D0B89A86E02DE5A8
:107E40003DEF44E051E03DBD2CBD48BF08B602FE09
:107E5000FDCF98B3952798BBA8955F9902C0815034
:107E600091F723E0E22EDD24D39435E0C32E41E1E7
:107E7000B42E84D0813479F481D0182F8AD012386E
:107E800011F480E004C087E0113809F083E072D07B
:107E900080E170D0EECF823419F484E182D0F8CF43
:107EA000853411F485E0FACF853541F467D0C82FC9
:107EB00065D0D82FCC0FDD1F6CD0EACF863519F4F2
:107EC00084E06FD0DECF843609F035C057D056D06D
:107ED000F82E54D0A82E00E610E080E6982E9F0CD5
:107EE0004DD0F80181938F019E12FACF52D0F5E464
:107EF000AF1201C0FFCFFE01E7BEE89507B600FC58
:107F0000FDCF90E080E0FE01E80FF91FDC01A05AF0
:107F1000BF4F2D913C910901D7BEE89511240296DF
:107F2000F812F1CFFE01C7BEE89507B600FCFDCF01
:107F3000B7BEE895ADCF843771F420D01FD0F82EAE
:107F40001DD027D08E01F80185918F0113D0FA94AE
:107F5000F110F9CF9DCF853739F41BD08EE10AD0CF
:107F600085E908D082E093CF813509F0A5CF88E07C
:107F70000CD0A2CF5D9BFECF8CB908955F9BFECF46
:107F80005C9901C0A8958CB1089598E191BD81BD1F
:107F90000895F4DF803219F088E0F7DFFFCF84E145
:107FA000E9CFCF93C82FEADFC150E9F7CF91F1CFE6
:0C7FB000282E80E0EADFE0E0FF270994C3
:027FFE0000077A
:0400000300007E007B
:00000001FF
