:020000021000EC
:10FC0000112484B7882349F0982F9A70923029F0F4
:10FC100081FF02C097EF94BF11D185E080938100EE
:10FC200082E08093C00088E18093C10086E08093E9
:10FC3000C20080E18093C4008EE0EBD0209A86E081
:10FC400020E33CEF91E0309385002093840096BB45
:10FC5000B09BFECF189AA8954091C00047FD02C006
:10FC6000815089F743E0D42ECC24C39451E1952EE2
:10FC7000C4D0813479F4C1D0C82FD1D0C23811F4A6
:10FC800080E004C087E0C13809F083E0AFD080E1B4
:10FC9000ADD0EECF823419F484E1C9D0F8CF8534E9
:10FCA00011F485E0FACF853581F4A7D0082FA5D0CF
:10FCB000182F87FF07C08BB781608BBF000F111F04
:10FCC000AED0E5CF8BB78E7FF8CF863579F495D05F
:10FCD0008D3451F492D0CBB790D0C170880F8C2B5B
:10FCE0008BBF81E0A4D0CCCF83E0FCCF843609F079
:10FCF0004BC083D0C82FD0E0DC2FCC277ED0C82BC0
:10FD00007CD0882E5E01B394E12CFF24F39475D04F
:10FD1000F70181937F01EA15FB05C9F780D0F5E46F
:10FD20008F1211C0F12CE12C08C06081C8018E0D2A
:10FD30009F1D92D08FEFE81AF80AF701F395CE15C0
:10FD4000DF0599F7A4CFF801D7BEE89507B600FC08
:10FD5000FDCF90E080E0F801E80FF91FDC01B395DA
:10FD60002D913C910901C7BEE89511240296C81750
:10FD7000D90789F785E0F80187BFE89507B600FC49
:10FD8000FDCF97BEE89583CF843709F536D0C82FCD
:10FD9000D0E0DC2FCC2731D0C82B2FD0B82E3FD0CD
:10FDA0007801F5E4BF120CC0C00FD11FC7014CD0C1
:10FDB0001DD08FEFE81AF80AEC16FD06B9F767CFE9
:10FDC000F70187917F0112D02197D1F760CF853756
:10FDD00039F425D08EE10AD087E908D085E056CFE6
:10FDE000813509F06DCF88E014D06ACF9091C000C2
:10FDF00095FFFCCF8093C60008958091C00087FFD7
:10FE0000FCCF8091C00084FD01C0A8958091C60000
:10FE10000895E0E6F0E098E1908380830895EDDFB7
:10FE2000803219F088E0F5DFFFCF84E1DFCFCF9398
:10FE3000C82FE3DFC150E9F7CF91F1CF282E80E042
:10FE4000E8DFE0E0FF270994F999FECF92BD81BD7C
:10FE5000F89A992780B50895262FF999FECF1FBAF1
:10FE600092BD81BD20BD0FB6F894FA9AF99A0FBEE3
:04FE7000019608955A
:02FFFE000007FA
:040000031000FC00ED
:00000001FF
