:10FC0000112484B7882349F0982F9A70923029F0F4
:10FC100081FF02C097EF94BFFED085E08093810002
:10FC200082E08093C00088E18093C10086E08093E9
:10FC3000C20080E18093C4008EE0D8D0209A86E094
:10FC400020E33CEF91E0309385002093840096BB45
:10FC5000B09BFECF189AA8954091C00047FD02C006
:10FC6000815089F743E0D42ECC24C39455E0952EDF
:10FC700061E1862EAFD0813479F4ACD0C82FBCD0EE
:10FC8000C23811F480E004C087E0C13809F083E095
:10FC90009AD080E198D0EECF823419F484E1B4D0C8
:10FCA000F8CF853411F485E0FACF853541F492D050
:10FCB000082F90D0182F000F111F9ED0EACF863545
:10FCC00019F484E0A1D0DECF843609F04AC082D096
:10FCD000C82FD0E0DC2FCC277DD0C82B7BD0782E4E
:10FCE0005E01B394E12CFF24F39474D0F701819367
:10FCF0007F01EA15FB05C9F77FD0F5E47F1211C03B
:10FD0000F12CE12C08C06081C8018E0D9F1D91D09F
:10FD10008FEFE81AF80AF701F395CE15DF0599F78A
:10FD2000B8CFF801D7BEE89507B600FCFDCF90E04C
:10FD300080E0F801E80FF91FDC01B3952D913C91AB
:10FD40000901C7BEE89511240296C817D90789F79B
:10FD5000F80197BEE89507B600FCFDCF87BEE89591
:10FD600098CF843709F536D0C82FD0E0DC2FCC27C8
:10FD700031D0C82B2FD0B82E3FD07801F5E4BF1278
:10FD80000CC0C00FD11FC7014CD01DD08FEFE81A97
:10FD9000F80AEC16FD06B9F77CCFF70185917F01D3
:10FDA00012D02197D1F775CF853739F425D08EE160
:10FDB0000AD086E908D08AE06BCF813509F07DCF83
:10FDC00088E014D07ACF9091C00095FFFCCF80934B
:10FDD000C60008958091C00087FFFCCF8091C000CD
:10FDE00084FD01C0A8958091C6000895E0E6F0E08A
:10FDF00098E1908380830895EDDF803219F088E0E8
:10FE0000F5DFFFCF84E1DFCFCF93C82FE3DFC15011
:10FE1000E9F7CF91F1CF282E80E0E8DFE0E0FF277F
:10FE20000994F999FECF92BD81BDF89A992780B5C2
:10FE30000895262FF999FECF1FBA92BD81BD20BD2E
:0EFE40000FB6F894FA9AF99A0FBE019608953B
:02FFFE000007FA
:040000030000FC00FD
:00000001FF
